:100000006F00C06E1300000013000000130000001A
:100010001300000013000000130000001300000094
:100020001300000013000000130000001300000084
:08003000130000007300100032
:100038000000000000000000080300000C0300009E
:10004800000000004606000000000000000000005C
:10005800480600004A0600000000000000000000FA
:100068004C060000000000004E06000000000000E2
:100078005006000052060000540600005606000014
:10008800580600005A0600005C0600005E060000E4
:10009800600600006206000064060000A838000040
:1000A800680600006A0600006C0600006E06000084
:1000B8007006000072060000223800007606000074
:1000C800780600007A0600007C0600007E06000024
:1000D80080060000820600008406000086060000F4
:1000E800880600008A0600008C0600008E060000C4
:1000F8009006000092060000940600009606000094
:10010800980600009A0600009C0600001E390000B0
:10011800A0060000A206000000000000A4060000DF
:10012800A6060000A8060000AA060000AC0600000B
:10013800AE060000B0060000B2060000B4060000DB
:10014800B6060000B8060000BA060000BC060000AB
:10015800BE060000C0060000C2060000C40600007B
:10016800C6060000000000000000000000000000BB
:100178000000000000000000000000005C2C0000EF
:10018800000000000000000000000000CA06000097
:10019800CC060000CE060000D0060000D206000003
:1001A800D4060000D6060000D8060000DA060000D3
:1001B800DC060000DE060000E0060000E2060000A3
:1001C800E4060000E6060000E8060000EA06000073
:1001D8000000000000000000000000000000000017
:1001E8000000000000000000000000000000000007
:0801F8000000000000000000FF
:10020000397101436EC619A0397141536AC866CA73
:1002100062CC5ECE19A0397101535AD056D252D455
:100220004ED64AD826DA22DC06DE330161408282CD
:1002300041114AC026C222C406C68282B24D410183
:10024000024D924C224CB24B4101024B924A224A3F
:10025000B2494101024992442244B24041018280A4
:100260003D432A876373C3029377F700BDEFADE583
:10027000937606FF3D8ABA960CC34CC30CC74CC795
:100280004107E36BD7FE11E28280B306C3408A06C2
:100290009702000096966780A6002307B700A30682
:1002A000B7002306B700A305B7002305B700A304D2
:1002B000B7002304B700A303B7002303B700A302CA
:1002C000B7002302B700A301B7002301B700A300C2
:1002D000B7002300B700828093F5F50F9396850051
:1002E000D58D93960501D58D61B79396270097021A
:1002F000000096968682E78086FA9680C1171D8F49
:100300003E96E374C3F8A5B77300203001A0EFF266
:100310003FF2EF30203CEF30E068EF3040341DBF5B
:10032000EFF21FF1EF300048EF30E06C25B7EFF24D
:10033000BFED0111EF304029B7490000374C0000F4
:10034000938529D01306ACD51385C19FEF0050319A
:100350001385C19FEF00B032B70A002003A60A221E
:1003600037BA00001385C19F93058ACDEF00103284
:10037000156937470000B7060000930509E21385A9
:10038000C19A130747AD938606323946EF003033E2
:1003900037B600008726C6CA37B60000072606CB48
:1003A00037B60000872546CBB737000037B60000C8
:1003B000072586CB938767593EC0B738000037388A
:1003C0000000B737000037370000B73600009388C9
:1003D00068581308A850930509E2938767521307DA
:1003E00047549386A6333146138581866926B747DD
:1003F000000037470000B7460000374600009387EB
:1004000087CC930509E21307E7C8938646C5130610
:1004100026B01385C1AFEF10E05E938629D0130795
:10042000ACD50546A9451385418C792937B600001E
:10043000B7B5000037B70000872546CD0327C7CBE7
:1004400087A845CCB7B5000007A885CCB7B5000094
:1004500007A7C5CCB7B60000B7B5000007A605CD05
:1004600083A606CCD30707F0D30600F05385B5204A
:10047000B70700009387E730938C418C9388C1AF16
:10048000138881861306401F93051005138541A824
:100490003EC266C09387C19AEF00907C1385418C61
:1004A00091291305401FEF302018138541A8EF1044
:1004B0008004938541A81385418C992103A60A22C3
:1004C00093058ACD1385C19FEF00501C1305401F73
:1004D000EF308015854513050004EF20E0009307F9
:1004E0000020231AF100B7240140C147138504807E
:1004F0003ECE4C0889473ECC231B0100EF10303F15
:100500009305800337150140EF10904A81478549D4
:10051000938404801384C19A13C9170093050020A3
:100520002685638F3701EF10F0487C4423190100C2
:100530001305210182972945EF30000FCA87E9BFD3
:10054000EF101047DDB7B71702409843B706FFF822
:1005500041111367170098C3D84337060200758FFF
:10056000D8C39843B706F7FEFD16758F98C3984316
:10057000B706FCFFFD16758F98C3D843B70681FFF9
:10058000FD16758FD8C39843B70600ECFD16758F1E
:1005900098C33707FF0098C723A6070202C402C604
:1005A0009843C166558F98C3B716024005679C42B1
:1005B000F18F3EC6A24785073EC4B24781E7A247F6
:1005C000E397E7FEB71702409C431397E700635891
:1005D000070685473EC6324785476310F706B717BB
:1005E0000240D8438966D8C3D843558FD8C3D8436F
:1005F000B706C1FFFD1613670740D8C3D843758FF0
:10060000D8C3D843C166558FD8C39843B7060001F5
:10061000558F98C3984393166700E3DD06FED843D1
:10062000B7160240719BD8C3D84313672700D8C3BD
:100630002147DC42B18BE39EE7FE4101828002C686
:1006400059BF01A001A001A001A001A001A001A02B
:1006500001A001A001A001A001A001A001A001A092
:1006600001A001A001A001A001A001A001A001A082
:1006700001A001A001A001A001A001A001A001A072
:1006800001A001A001A001A001A001A001A001A062
:1006900001A001A001A001A001A001A001A001A052
:1006A00001A001A001A001A001A001A001A001A042
:1006B00001A001A001A001A001A001A001A001A032
:1006C00001A001A001A001A001A001A001A001A022
:1006D00001A001A001A001A001A001A001A001A012
:1006E00001A001A001A001A001A001A0970100208C
:1006F00093814133178100201301C19017C5000079
:100700001305C5E7970500209385C58F1386818162
:1007100063FAC5008322050023A055001105910549
:10072000E3EAC5FE13858181938541B46377B50003
:10073000232005001105E36DB5FEFD42739002BC58
:10074000AD4273904280B76200009382820873A02A
:100750000230970200009382628E93E2320073901F
:100760005230EFF05FDE97020000938282BC7390FC
:10077000123473002030EFF2BFAB79712A84AE845B
:10078000328981451306000351052AF62EF432F210
:1007900036F036CE3ACC3ECA42C846C6D13437B619
:1007A0000000072006CFD3F714D0D2470546D377F1
:1007B000F0187CC486473316260182763CCCB7B746
:1007C000000007A047CFA27512763275F246537625
:1007D000061062474248B24804C010C474C038C40E
:1007E0005CE0D37716D0D3F5051823280405232A17
:1007F00014055377F0185377D7185376F618D3F7B4
:10080000F510D39717C02310F4025377A71810E8F8
:1008100058E4456181B4EFF2BFA17C4141112AC681
:100820008297324538611C7DD3F7E708530700F003
:10083000D397E7A081CFB7B7000007A787CED3979C
:10084000E7A093F7F70F81E3410129B4B7B70000A0
:1008500007A7C7CED317F7A0EDB7EFF27F9D3C45B2
:100860002A8482978357240258641D8DD37705D03C
:100870007C44D3F7E7101CF48297835744025864F2
:100880001D8DD37705D03C48D3F7E7105CF48297F1
:100890008357640258641D8DD37705D07C48D3F705
:1008A000E7101CF882971868D37715D0B7B7000007
:1008B000D3F7E7103CE087A787CF3C4C1CFC82971E
:1008C000D37715D05CFC79B2EFF29F964111328458
:1008D000AE841306000E814536C63AC45132B24684
:1008E0002247230A950000C92320D50E2322E50EB6
:1008F00041018DB2EFF2DF938327050E829799BAFB
:1009000083478500138717008A072304E5003E9577
:100910000CC18280397122CC1304D50526CA32D489
:10092000AA8436D62E86341093050008228506CE7A
:100930003AD83EDA42DC46DE36C6EF40107E83A768
:10094000440E22858297F2406244D2442161828023
:10095000EFF27F8C2E89B7B500001306C501938591
:10096000C5CF2A8481447D37B7B900007D199385AE
:10097000C9D022858504793FE37B99FEB7B5000095
:10098000938505D1228579376FF03F8CB307B50089
:1009900083C7C70185CFEFF2BF8941112A84138530
:1009A000C50122956C00B284EF40B04EB247038778
:1009B000070019CB9305C401B385B7402285493F91
:1009C000054541016FF01F8988E0DDBF0145828048
:1009D000B547638AF546EFF2BF8579711C4D22F663
:1009E00026F44AF2830645011387170018CD2A849E
:1009F000AA976380D502238EB7009307F00363F4B0
:100A0000E700232C05003274A274127945616FF05F
:100A10007F84238E07001C4981CBB7B500001306E5
:100A2000C501938585D0FD3583468400232C0400C1
:100A300023260400814713F7F70F637ED70013972F
:100A40002700229718438345C40185070346070002
:100A5000E393C5FE58C4484401E9B7B50000938547
:100A6000C5D32285453D45B78347D40113074004CC
:100A70006387E71C6368F700130710046381E70EC0
:100A8000854559A013075004E38FE7F61307D004F8
:100A9000E398E7FE8347E40113073004638BE70420
:100AA000130730056387E702130720046397E70AFB
:100AB000130605018D452285D13D31F55C44886BD7
:100AC000EF30C02CAE86B7B500002A86938585D856
:100AD00085A00347F40111C76317F702EF00D02385
:100AE0001DB73049B7B50000938505D622851D3561
:100AF00019BF8347F40113074005638AE700130712
:100B00006005638AE7028D4522859935EDBD1306A0
:100B10004505914522859D3DE31705EE5C44E86F50
:100B2000EF30C026AE86B7B500002A869385C5D6BD
:100B30002285CD33C9BD1306850591452285B9357A
:100B4000E31305EC5C44A873EF304024AE86B7B5E0
:100B500000002A869385C5D7E1BF894575B703474D
:100B6000E40193069004630FD702930660056306C1
:100B7000D70693068004E312D7FE0347F4019306D9
:100B80002004630CD708930630046301D70AE31CE2
:100B9000F7F65C59BC478297B7B500002A86938563
:100BA00045DCA9B744598878EF30401EC8742AC480
:100BB0002EC6EF30A01D88742AC02EC2EF30001D53
:100BC0002248B24802479247AE86B7B500002A864F
:100BD000938505DA22853D3B3DB58347F401130734
:100BE00020046381E70213077004E39EE7F05C5979
:100BF000C87FEF30A019AE86B7B500002A8693856E
:100C000085DB3DB75C59887FEF304018AE86B7B5BD
:100C100000002A869385C5DA21BF5C59FC4782977C
:100C2000B7B500002A869385C5DCC9B55C59BC4BB5
:100C30008297B7B500002A86938545DD45BD834779
:100C4000E401130760046380E70A13070005E396D5
:100C5000E7F08347F401130720046382E7041307D6
:100C600030046380E70613071004E39EE7E8105D95
:100C7000914522851106193B11ED5C449C5FC863C8
:100C8000EF30C010AE86B7B500002A869385C5DD6B
:100C9000228549315C44885FEF00705DADB3105D23
:100CA000914522852106DD3175F55C449C5F88679E
:100CB000EF30C00DAE86B7B500002A86938585DE7D
:100CC000C1BF105D914522853106C93161F55C4493
:100CD0009C5FC867EF30800BAE86B7B500002A86F0
:100CE000938545DF75B78347F40113079004638349
:100CF000E714636DF704130710046380E708130714
:100D00008004E392E7D070089145228502CEBD3978
:100D10004844EF007000B7B7000087A747D372665A
:100D2000B7B70000D30500F05376F61887A787D32E
:100D3000B7B7000007A5C7D248445376F6102D2B4D
:100D400051C95C44885FEF00905269A01307C0044A
:100D5000638AE70A13074005E397E7CA70089145DD
:100D6000228502CE25314844EF00007B4844F267DB
:100D7000C9457CE9EF00607CB1A883470402854443
:100D80009DC329466C0813050402EF403031F24739
:100D9000AA840387070001CB9305C401B385B7403C
:100DA00022857D3685444844530400F00149EF0014
:100DB000A07693078002B384F402B7B7000087A43B
:100DC000C7D2B7B7000007A907D3484463499900C1
:100DD000EF008074B7B50000938505E059B1530664
:100DE0008420D30500F053859420792109C55C4403
:100DF000885FEF00D0475145EF2010030509537479
:100E00002401E1B770089145228502CE413648445D
:100E1000EF008070B7B70000726587A787D248449B
:100E2000D317F5A099E35385F720530600F0D305B7
:100E3000C62031B770089145228502CE813EF26707
:100E400027ACF18041BF8280EFF28FBEB28603866D
:100E50000500B7B50000938545D16D3C6FF08FBF9D
:100E6000EFF20FBD3284AE84130600088145EFF027
:100E70002FBF23209508232285086FF0AFBDEFF226
:100E80002FBB8327050882976FF0CFBC397132D40E
:100E900036D62E8634109305000806CE22CC3AD8DA
:100EA0002A843EDA42DC46DE36C6EF40102783272E
:100EB000440822858297F240624421618280D3F700
:100EC00015D02314C50034C51CE178C58280EFF22B
:100ED0002FB63C4582976FF0EFB7D377B518D3970D
:100EE00007C0D3F707D04BF5B750D30700F0D3971F
:100EF000A7A099E35375B5008280EFF26FB3B7B73F
:100F00000000411122E607A487E0D3058420F137D1
:100F1000B7B7000087A787D3AD67B7B500005315F3
:100F2000F5A037B60000938687E105C907A7C5E09D
:100F3000D317E5A085C3872706E15375F5105375D0
:100F4000E518D31705C08A07B69788633264410154
:100F50006FF04FB053F5A708F9BFB7B7000007A768
:100F600047E1D317E5A09DC35375F508872706E130
:100F70005375F51087A7C5E05375F518D31705C04D
:100F80008A07B69788635315A520C9B75375A40877
:100F9000072406E15375851007A4C5E0537585182D
:100FA000531705C00A07B387E600E9BFEFF24FA861
:100FB000B7B7000087A7C7E053F5A7083D3F6FF01C
:100FC0006FA9D30705E0B7B635209386C6D013D7EF
:100FD00017403697530707F0B7B70000D377E518E7
:100FE00007A5C7CE4375E578828023200506232E0A
:100FF00005042326050423240504232805062326A7
:1010000005068280EFF2CFA2011122EE5304A52043
:101010005305C62026EC2EE62AC42EC232E0F13D4E
:101020000266D304A5205305C6204937B265224580
:101030009245D3F7B410C37785785375B5101CE18A
:101040004B749450E26480E1726405616FF08FA08C
:10105000EFF20F9E011126ECD304A5205305C62004
:1010600022EE2EE62AC42EC232E0413D026653042F
:10107000A5205305C6201D3FB26522459245D37772
:10108000B410C77795785375B5101CE1437494502C
:10109000E26480E1726405616FF0CF9BD30700F0DA
:1010A000B7C7000007A7C7DB5388B7A0D386A7A0A0
:1010B00053F7E510B7B7000037C70000630A080A06
:1010C0008DCED316E5A0639206125375E50887A767
:1010D00007CFB7C6000007A7C6DC872607DDD3F712
:1010E000A708CBF7E578D3F7D71053F5A7001CE195
:1010F00088E143F5E55008E299A0B7C6000087A74C
:1011000046DDD3F7F510D316F5A0E5C25315A5209B
:10111000B7C6000087A707CF5375E50807A7C6DC49
:10112000872607DDCBF7E578D3F7A708D3F7D710E5
:10113000C3F5E5789CE10CE2D3F5A5000CE11C6158
:10114000530700F05307F7A075CF87A607CFD387C3
:10115000D7A0EDCB9C61D307F7A0EDC7D387D7A06D
:10116000F5C31C62D307F7A0F1CF5385D7A08280C7
:10117000B1C2B7C6000087A746DDD3F7F510D31676
:10118000F5A0C9EAB7C600005375E50087A707CFE9
:1011900007A786DD872607DDCBF7E578D3F7A70815
:1011A000D3F7D71053F5A7001CE1C3F5E55008E2CB
:1011B0008CE171B7D316E5A0B1CE5375A70887A708
:1011C00007CFB7C6000007A786DD872607DDD3F760
:1011D000A708CBF7E578D3F7D710C3F5E5781CE27D
:1011E00053F5A5008CE108E199BFD377E50053756D
:1011F000A70807A707CF872607DD5377F708537798
:10120000A7085377D7105375A70098E108E15375E5
:10121000F500D5B5D316A52087A707CF5375E508E8
:10122000D3F6E608072707DDD3F7D708D3F7A708D3
:10123000D3F7E7101CE2D3F7D70053F5A7001CE162
:1012400088E1F5BD01458280EFE29FFE41112A84CD
:101250006C002800F53B085CB26522651306C500EA
:101260009305850011051D3D11E5E5473CC8410189
:101270006FE05FFE0545E5BFD30700F02A87D3176F
:10128000F5A0B1CFB7C7000087A747DCD317F5A0FB
:101290000145A9EFEFE2DFF90111B7C7000022EE27
:1012A00007A487DC26ECD384B520537485105385BE
:1012B000B5204AEA3AC432E6D5395379A4105385A9
:1012C00094202539D375A41032665305292122456F
:1012D000A53F7264E264526905616FE0BFF7B7B77A
:1012E000000087A707CFD397A7A05DB78280EFE262
:1012F0003FF45C59011126EC9C7FB7B7000007A7AB
:1013000047CDD3F7F700B7B7000087A407CF22EE89
:1013100032E6D3F7E7182AC4D3F7F418D3F5B71099
:1013200053F4A71053F5B5102EE24375845051398C
:10133000B7C7000087A7C7DD9265224553F5A718F8
:101340003266D31795A089C75374A410D3F5A5109E
:1013500053058420D53D7264E26405616FE09FEF20
:10136000EFE21FED5C5939714EF89C7BD389B520B3
:10137000CC7737C700004AFAD3F5F5088727C7DBD3
:101380005309A52088772A84D3F5F5106C0828081E
:1013900036E622FE26FC52F6B5315C587267E267EB
:1013A000807FB7B7000087A547CD53748400B7B7D7
:1013B000000007AA07CFD3F9E9085379F908537455
:1013C000B4187CF424643C606C6438F8C3F4274996
:1013D000C3F7375953748A18D3F4841053F4871021
:1013E0005375841043F59450E93EB7C7000007A732
:1013F000C7DD585830645375A718B266D31745A196
:10140000A9C7B7C7000087A707DCD3F4A41053749B
:10141000A4105376F610D377F6103CE4F2676267B7
:10142000D3058420D377F410538594205386D62097
:101430002285C37797785CFB013D7274E274527920
:10144000C279327A21616FE0FFE078605C635379A2
:101450002711537737114379F960C3F7E79075BFC8
:10146000EFE21FDD39713284AE84130640078145F7
:1014700022FE26FC530407F0D38406F02AF62EF44D
:1014800032F236F03AEE3EEC42EA46E83EC642C45C
:1014900046C2EFE0FFDCB2477267E2671CD9C6477D
:1014A00018ED5CED5CDDD647537714D032757CD9EE
:1014B000B7C7000087A787E1A2751276D3F7E718B0
:1014C00082765268C268224892482300950040F50F
:1014D00008E572744CE510E954E92720050327223A
:1014E000150304F5232A0503232C15035CE1E2749C
:1014F00021616FE03FD6EFE2BFD37C592A84829707
:101500000858EFF0DF9C4858EFF0EFB0085C3D2B37
:1015100085473CC86FE01FD4EFE29FD12A84EFF0EB
:10152000DFAC530600F0085CD305C6205305C62087
:10153000F521C1473CC86FE0FFD12CC98280EFE2A2
:101540003FCF58593C492A8454634947638AE7048A
:101550004D47638AE7044C605C74786CD3F7F510F0
:10156000D397E7A081EBD397F720D317F7A099E3A0
:10157000D307E720D3F5B71837C70000072707FBC5
:101580001C58530500F0D3F6E610D067986B2285FF
:10159000C3F6E660F13319C1085CD1296FE09FCB37
:1015A0007C697CED4DBF3C71386D4C695377F70811
:1015B0005376D718D3F7E7003CF15376B61070EDA9
:1015C00059BFEFE2FFC63C495D472A84485D63820C
:1015D000E704636AF70059476382E70437C60000EF
:1015E000130606FA05A06147638AE7006547E3979B
:1015F000E7FE37C60000130686F529A037C60000AF
:10160000130646F2A285EFF03F84228531376FE062
:101610007FC437C600001306C6F6EDB737C6000014
:10162000130606F8C5B734757C711869D3F7D71857
:1016300053F7E61038E1D3F7E7107CE18280EFE260
:101640009FBD138701821C435459354685071CC32F
:101650003849411103A90600791708657C71636355
:10166000E61031660A07130606DE329718439384A4
:1016700001822A84028795473CC8EDA0530600F0FA
:10168000085DD305C6205305C620492E9387C1B1F6
:1016900023A4070023A2070023A0070023A004001F
:1016A0009947D9BFBC461389C1B1829783270900E6
:1016B0003E955C582320A900FC4782978327490068
:1016C0003E955C582322A900BC4B829703278900D2
:1016D0009307F0032A9788402324E90063F4A708BE
:1016E00003260900832649003357A7024C5803A854
:1016F000850083D70502D37718D03356A6022393EB
:10170000E502B3D6A6022391C50241657D15698E17
:10171000698F2392D502B7C5000007A7C5E1E98EFE
:10172000D3F7E710539817C0420813580801B3883D
:10173000074163401603B385070163CCC50063CA44
:10174000160163C8D5006346170163C4E5009D47D1
:1017500025B7E145485C2CC8B7C50000938545E234
:10176000EFF04F9B41016FE05FAE23AA01B223A0CF
:101770000400A14711B79876DC625375E508D3F7EA
:10178000F700938741B39863938941B343F5A770FA
:10179000D30700F088E3D317F5A095C3B7C70000BF
:1017A00087A707E2D317F5A0530600F0D305C6209C
:1017B00091CF5305C620085C9524D94775BDB7B7AE
:1017C000000087A7C7CBD397A7A0F9BF228505360E
:1017D00019C1085C692C8D473309F9029C40E3E389
:1017E00027F9186487A70900B7B70000530600F06F
:1017F000D3F7E71807A747CDD305C6205305C62062
:10180000085CA5473CC8D3F7F700D3F7E7187CF08E
:10181000312489BF5C65530600F05395F720938708
:1018200041B3D305C62088E3DCE3938781B223A0CC
:10183000040023A2070023A00700EFF05FAB19C14B
:10184000085C3524A9470DBD858B138781B28A07B3
:101850003E971C639876530600F0938981B2D3F7C4
:10186000E700D305C6201CE3138741B3BA9788630A
:10187000EFF0FFA719C1085CDD2A98409377E9FFD4
:10188000E362F7EE87A709005C5807A749001359E0
:101890001900D4635377F708D37709D0B7B700009E
:1018A0002285D3F7D7105377F7185C64D3F7E7187E
:1018B00007A747CDD3F7F700D3F7E7183CF4A533D4
:1018C000530600F0085CD305C6205305C620B92294
:1018D000BD475DB323A0040023AE018061B59387AB
:1018E000C18137B700009863D062872687D35375CC
:1018F000F510D30500F04376D67090E3EFF03F9FEC
:10190000E30205E6085CA522B1BD03060500485DBB
:10191000B7C50000938585E7EFE0DFFF4860EF2063
:10192000E0462A86485CAE86B7C50000938585E907
:10193000EFE05FFE5058485CB7C5000083570602D1
:101940000357660283564602035626029385C5EA6C
:10195000EFE05FFC0864EF20604368702AC42EC685
:10196000EF20C0422A862247B247485CAE86B7C500
:1019700000009385C5EEEFE0FFF94864EF200041D9
:1019800028742AC42EC6EF206040B2472A86224718
:10199000485CAE86B7C50000938585F0EFE09FF701
:1019A000C147D9B9EFE2DF882A844859EFE0FFEA5E
:1019B0003C480D479386F7FE6367D7002285EFF01A
:1019C0001FB86FE03F891387E7FFB54663E5E60080
:1019D0002285B531FDB71387B7FE954663E5E6006E
:1019E0002285C536F9BF05476395E70089473CC89E
:1019F000C9BFBD9BF9D7DD47DDBFEFE27F835D3710
:101A00006FE05F850CC123220500232405002326F7
:101A1000050010C954C918CD5CCD8280EFE25F810A
:101A20005C49411148E10CE550E52A8432E42EE698
:101A30008297B2651C4C5385B520829722665C4C18
:101A40005305C620829741016FE0DF80EFE24FFE31
:101A50001C4941112AC68297530600F03245D3052E
:101A6000C6205305C6205D3F41016FE0AFFEEFE2A7
:101A70002FFC5C4948612A8482971C4C0864829739
:101A80005C4C486482976FE0EFFCEFE26FFAB72797
:101A9000014093870740631EF5008545130500202C
:101AA000EF005028814513050020EF00B0276FE0BC
:101AB0006FFAB737014093870780E31AF5FE854533
:101AC00013050040EF001026814513050040F1BFCB
:101AD0005C413707F1E01307F7EF944D7D8F9C4190
:101AE000D58FD44DD58FD441A206D58FD98F5CC167
:101AF0001C4537F7F1FF1307D77FD4457D8F9C49ED
:101B0000D58F94458606D58FD98F1CC55C55370770
:101B100010FF7D177D8F83C74501FD1793F7F70FE2
:101B2000D207D98F5CD582801C4589C593E7170001
:101B30001CC58280F99BEDBF1C4589C593E7071042
:101B40001CC5828093F7F7EFE5BF5C4193F5F50F75
:101B500001C6DD8D4CC1828093C5F5FFFD8DDDBFD3
:101B60001C4593E787001CC5828008450D810589C7
:101B700082801C4593E747001CC582800845098187
:101B8000058982801C4591C537075000D98F1CC537
:101B900082803707B0FF7D17F98FD5BFA54763F760
:101BA000B7048D47138765FF3307F7020328C50085
:101BB0009D47B397E70093C7F7FFB3F70701B396C5
:101BC000E600DD8E54C5994763E3C70495477D164B
:101BD0003306F6025859FD47B397C70093C7F7FF7E
:101BE000F98F3396C5005D8E50D982800D473387BB
:101BF000E502032805019D47B397E70093C7F7FF68
:101C0000B3F70701B396E600DD8E14C96DBFB14787
:101C100063E2C702954765163306F6021859FD4779
:101C2000B397C70093C7F7FFF98F3396C5005D8E52
:101C300010D9828095474D163306F6025855FD4758
:101C4000B397C70093C7F7FFF98FB395C500DD8D34
:101C50004CD582801C4565777D17F98FDD8D0CC5CD
:101C600082801C4589C52167D98F1CC58280617718
:101C70007D17F98FDDBFA54763FBB7048D47138739
:101C800065FF3307F7020328C5009D47B397E700B8
:101C900093C7F7FFB3F70701B396E600DD8E54C58F
:101CA000145D0906154793D746018D8BB307F6409F
:101CB00093F7F70FB387E7027D473317F700134712
:101CC000F7FF758FB395F500D98D0CDD82800D4738
:101CD0003387E502032805019D47B397E70093C7C3
:101CE000F7FFB3F70701B396E600DD8E14C94DBFC9
:101CF0001C5D3707D0FF7D17FD15F98FD205DD8DEF
:101D00000CDD8280411102C62AC6B2479387870242
:101D1000BE952EC6B247884341014205418182806B
:101D20005841144193D78500F58F99C713F5F50FE6
:101D3000798D3335A000828001458280A18193C5D1
:101D4000F5FF0CC182805C4191C537070004D98F33
:101D50005CC18280370700FC7D17F98FD5BFEFE2A9
:101D60002FCD01112A8423040100A544834781005B
:101D700063FFF40423040100A54621468347810044
:101D800063F5F608231501002304010095468347F7
:101D9000810063F3F6100357A1008357A100994611
:101DA0000D46B3F7D702056513050580B3D7C70203
:101DB0003357D702BA97C207C1832315F10083575F
:101DC000A10005611D8D420541856FE0AFC81C442F
:101DD00093E787001CC42285493B75FD1C4493E7AB
:101DE00047001CC42285593B75FD78448347810018
:101DF00014108607B6972396E7FE83478100850770
:101E000093F7F70F2304F10095B7A304010083476C
:101E10009100637AF60083478100850793F7F70FF7
:101E20002304F100A1BF03479100834791000C10E8
:101E30000607850786072E97AE970357C7FE83D7F9
:101E4000C7FE63F3E704834791008607AE9783D705
:101E5000C7FE2315F10083479100034791008507D2
:101E60008607AE9783D5C7FE931717001810BA9749
:101E70002396B7FE834791000357A1000C108507F6
:101E80008607AE972396E7FE83479100850793F771
:101E9000F70FA304F100A5BF83478100101003577B
:101EA000A10089078607B29783D7C7FEBA97C207F2
:101EB000C1832315F10083478100850793F7F70F4E
:101EC0002304F100E9B51C4141677917F98F1CC162
:101ED000232005002322050023240500B707024024
:101EE00023260500138787006317E500D84313678F
:101EF000F700D8C382801387C7016316E500D84373
:101F00001367070FFDB7138707036318E500D8436E
:101F10008566938606F0558FE9BF138747046315DE
:101F2000E500D843BD66C5BF138787056316E50086
:101F3000D843B7060F00C5B71387C7066316E50079
:101F4000D843B706F000C1BF138707086316E50042
:101F5000D843B706000FC1B7138787406319E50060
:101F600003A747401367F70023A2E7408280138747
:101F7000C7416317E50003A747401367070FEDB795
:101F800093870743631BF500B707024003A7474049
:101F90008566938606F0558FC1BFB7070240138749
:101FA00047446316E50003A74740BD66EDB71387B6
:101FB00087456317E50003A74740B7060F00E1BF59
:101FC0001387C7466317E50003A74740B706F0002D
:101FD000D9B7138707486317E50003A74740B7063B
:101FE000000F55BF138707496319E50003A7474D45
:101FF0001367F70023AAE74C82801387074A631709
:10200000E50003A7474D1367070FEDB71387074B8D
:102010006319E50003A7474D8566938606F0558F43
:10202000D1BF1387074CE319E5FC03A7474DBD66F5
:10203000FDB71C4161773D0794517D8F9C45D58F3D
:102040009449D58FD449D58F944DD58FD44DD58F04
:10205000D451D58F9455D58FD98F1CC1DC455CC127
:102060009C411CC5DC415CC582801C4101C6DD8DE4
:102070000CC1828093C5F5FFFD8DDDBF9317350040
:1020800063DA0700B707024083A707407D8D333529
:10209000A00082809317250063D70700B70702408E
:1020A00083A7074DE5B7B70702409C43C5B7931711
:1020B000350063D70700B707024023A2A7408280FC
:1020C0009317250063D70700B707024023AAA74C40
:1020D0008280B7070240C8C38280EFE26F95793FE4
:1020E0006FE04F97EFE2CF94D9376FE0AF969C4502
:1020F00013F7070113F8F70001C7D8413368E80068
:1021000083D5050013F7F50F39C318418146854E75
:102110003D4F930F800293028004214E3396DE00E0
:10212000B3F8C500631116039398260033131F01FB
:102130001343F3FF3377E300B318180133E7E800E4
:10214000639FF70550C98506E39AC6FD18C11307BA
:10215000F00F6375B70454412146854E3D4F930FF0
:10216000800293028004414EB398CE0033F71501EC
:102170006392E8021317260001173313EF0013438D
:10218000F3FFB376D3003317E800D98E639DF701D0
:10219000232A15010506E319C6FD54C18280E39484
:1021A00057FA10C94DB7E39757FE23281501DDB73D
:1021B0000CC982804CC98280B7070140635705046F
:1021C000DC4F135705019376F70013160501370707
:1021D000300041823378E500635C05046319E8024E
:1021E000138706018D46B396E60093C6F6FFF58F7A
:1021F00089C91357550112073317E600D98F635762
:102200000504370701405CCF8280DC435DBF1317B4
:10221000B500635607000D47B316D700F9B713573B
:10222000550112073317E6001347F7FFF98FC9B7B7
:102230006312E8023708014083264800370700F19F
:102240007D17F98F758F2322E800C5F53707014008
:102250005CC382801317B500635C07000D4733171A
:10226000D7001347F7FF7D8FB707000FD98FF1BF56
:102270001357550112073317E600E5B723A2A182D1
:1022800082809387418294430347050089E6834710
:102290002500920731A8944305466391C6048347FD
:1022A00025000346150092076314D60093E707F84C
:1022B000B7E600E093F7F70FBA962380F64085461D
:1022C000935757003397E6005441ADC693870704F0
:1022D0008A07B7E600E0B69798C382808C438946A8
:1022E0006393D50283461500834725006365D600B6
:1022F0008A06B69779BF9386E6038A06B69793F760
:10230000F70F920765B790438D46631ED60083464C
:102310001500834725006364D6008606D9BF9386DF
:10232000C6078606E1BF94439147E39AF6F88347D0
:10233000150085B79387070661BFB7160240DC42D8
:1023400051777D17F98F5D8DC8C2828037170240A3
:102350005C439146B18B6385D700A1466386D7065F
:10236000B7177A00938707201CC1371602405C42DA
:1023700037070020130707009183BD8BBA9783C6E8
:1023800007001C41B3D7D7005CC15442A1829D8A8B
:10239000BA9683C60600B3D6D70014C55442AD82A0
:1023A0009D8A369703470700B3D7E7005CC55842BC
:1023B00039839376370013874180369703470700A8
:1023C000B3D7E7021CC982805C435843C166C98306
:1023D000758FB7F6FF1F83A6C670BD8B890713964E
:1023E000160163480600C54601466392D702C947F5
:1023F00039A88946638FD702BD46638ED702C1468E
:10240000638ED702C54601466393D700C1471DEFCF
:102410003747024003270780418B05C737177A00EB
:1024200013070720B307F7021CC121D21C41858383
:1024300025BF01466DBF0546B547D1BF0146BD4723
:10244000F9B737173D0013070790E9BFB7150240EA
:10245000D8559316F700D85563DF060411833D8BDA
:102460009306170037177A00130707203357D70250
:1024700018C1D455A182BD8A8DE295463307D70293
:10248000058318C137170240585714413D8B050783
:1024900033D7E60218C1184171B785456394B60079
:1024A000E546E9BFBD456396B600D1463387E602EF
:1024B000C9BF8906E5BF3D8B9306170037177A0021
:1024C000130707203357D702F1B799C537170240D2
:1024D0005C4B5D8D48CB8280B7170240D84B1345CB
:1024E000F5FF798DC8CB828099C5371702401C4F04
:1024F0005D8D08CF8280B7170240984F1345F5FFD6
:10250000798D88CF828099C5371702405C4F5D8DE9
:1025100048CF8280B7170240D84F1345F5FF798D19
:10252000C8CF828099C5371702405C475D8D48C788
:102530008280B7170240D8471345F5FF798DC8C789
:102540008280035705008D679387070483D6250093
:102550007D8F83D70500D58F83D64500D58F83D651
:102560006500D58F83D68500D58F83D6A500D58FFE
:1025700083D6C500D58F83D6E500D58FD98F23109C
:10258000F5000357C501FD779387F77FF98F231E69
:10259000F50083D705012318F500828083570500D5
:1025A00091C593E707042310F5008280C207C18319
:1025B00093F7F7FBC207C183FDB72316B5008280EE
:1025C0000355C5008280035585006D8D3335A0000D
:1025D00082808357050037370140930607C0C20742
:1025E000C1836300D504B7060040630CD50293860F
:1025F00006406308D502B7160040138606806302C2
:10260000C502938606C0630ED50013070740630A10
:10261000E50037570140930607C06304D5006317F0
:10262000E50003D7250093F7F7F8D98F3717004057
:10263000630DE500130707406309E50093F7F7CF43
:1026400003D76500C207C183D98F2310F50083D754
:1026500045002316F50283D705002314F502B7378A
:102660000140138707C0630EE50093870740630AA4
:10267000F500B7570140138707C06304E5006316F0
:10268000F50083C785002318F5028547231AF50056
:1026900082808357050203D6050003D82500C207B0
:1026A000C183F99BC207C1832310F502835705023A
:1026B0008356450003578501C207C1834207418302
:1026C0001377C7F8518F03D68500F59BC206336692
:1026D0000601D18F37360140130806C0C182630E50
:1026E000050113060640630AC5003756014013086A
:1026F00006C0630405016313C50203D6A500DD9B74
:1027000003D8E500D18F03D64500ED9B93F6F6CFB5
:10271000D18F03D6C50033660601D18E2312D500B2
:10272000231CE50003D76500231AE5022310F502F8
:1027300082808357050265771307F7CFC207C183ED
:10274000BD9BC207C1832310F50283570502835640
:10275000450003D88500C2071396060183568501FC
:10276000C18393F7F7FD758F83D605004182A206DA
:10277000558F83D6250042074183B3E606019206B2
:10278000D58FB7360140C207138806C0C183630ED8
:10279000050193860640630AD500B75601401388A9
:1027A00006C0630405016311D50483D6A50093F721
:1027B000F7F703D8C5009206D58F83D64500C20728
:1027C000C183920693F7F7FBD58FFD769386F63F8C
:1027D000F18E03D6E500C207C183336606010A06FF
:1027E000D18E1396060141822312C500231CE500F9
:1027F00003D76500231CE5022310F502828083576E
:10280000050203D88500C207C18393F7F7EFC2071B
:10281000C1832310F50283570502835645000357F1
:10282000C501C20713960601420783D605004183FE
:102830001377C7F8558F83D62500C18393F7F7DF49
:10284000B3E60601A206D58FB7360140C20713884A
:1028500006C04182C183630E050193860640630A68
:10286000D500B7560140138806C063040501631202
:10287000D504FD769386F67FF58F83D6A50003D821
:10288000C500A206D58F83D64500C207C183A20624
:1028900093F7F7BFD58FF576FD16F18E03D6E500D9
:1028A000C207C183336606011206D18E1396060154
:1028B00041822312C500231EE50003D76500231EB5
:1028C000E5022310F502828003570502FD77FD170C
:1028D000F98F2310F50203580502835645008357EC
:1028E000C50165771396060183D605001307F7CF58
:1028F0007D8FF977A206FD17558FB3F7070183D6B1
:10290000250003D8850042074182B3E60601B206DE
:10291000D58FB7360140C207138806C04183C183F3
:10292000630E050193860640630AD500B756014041
:10293000138806C063040501631CD500F176FD16FB
:10294000F18E03D6C5001A06D18E13960601418278
:102950002312C500231EE50003D765002310E504FC
:102960002310F502828003D7250083D70500D98F75
:1029700003D74500D98F03D76500D98F03D78500CA
:10298000D98F03D7A500D98F03D7C500D98F2312BC
:10299000F50482808357050091C593E71700231043
:1029A000F5008280C207C183F99BC207C183C5BFFE
:1029B0008357450491C52167D98F2312F50482807E
:1029C000C607C583DDBF8357050091C593E7070898
:1029D0002310F5008280C207C18393F7F7F7C2077F
:1029E000C183FDB783578501C207C183DD9BDD8DA0
:1029F000231CB500828003578501FD779387F77FFD
:102A0000F98FA205CD8FC207C183231CF5008280F8
:102A10008357C501C207C183DD9BDD8D231EB50031
:102A200082800357C501FD779387F77FF98FA20551
:102A3000CD8FC207C183231EF5008280231AB50201
:102A40008280231CB5028280231EB5028280EFD2D1
:102A50002FFE83560501F577FD17F58F83D66500A8
:102A600003D7C5007971D58F2318F5008356C500AB
:102A7000FD779387379FF58F83D645002A842EC62E
:102A8000D58F83D68500D58F83D6A500D58F231605
:102A9000F50083574501C207C18393F7F7CFD98F5C
:102AA000231AF5006808EFF07F8AB7470140938743
:102AB0000780B245631DF404A2578356C4006547DE
:102AC000B387E702C206C186984163D406040607AD
:102AD0000356C4004206B3D7E702130740064186F7
:102AE000B3D6E702B3F7E7029206635606028E07F3
:102AF00093872703B3D7E70213F77700B367D700AD
:102B0000C207C1832314F40045616FD0AFF492571C
:102B10006DB70A0775BF920793872703B3D7E702FC
:102B2000BD8BD58FF1BF81C98357C5000967D98F88
:102B30002316F50082800357C500F977FD17F98F3A
:102B4000C5BF13F7F50F85471583B395B700631914
:102B5000F7009307C500984301CED98D8CC38280BE
:102B6000894693074501E318D7FE93070501E5B7AA
:102B700093C5F5FFF98DDDB793F5F51F2312B50069
:102B80008280035545001375F51F828003550500AB
:102B90006D8D3335A000828013F7F50F85461583C0
:102BA000B397B6006313D7020357C500F98F0357D5
:102BB000050001454207418381CB0545A181B3153D
:102BC000B5006D8F3335E000828089466315D700EC
:102BD00003570501E1BF03574501C9BFB7070050BF
:102BE000239AA70203C767031377C70F238BE70254
:102BF0008280B7070050239CA70203C7A70313775F
:102C0000C70F238DE7028280EFD28FE2814713F74F
:102C1000F70F6365A700D9376FD0CFE303A74184CF
:102C20003E9783460700850793C6F6FF2300D70427
:102C3000F9BFEFD2EFDF814713F7F70F6365A70006
:102C40004D3F6FD02FE103A781843E978346070055
:102C5000850793C6F6FF2300D704F9BFB7070050D6
:102C600003C767001377F70F93762700638E066418
:102C70005971A2D6A6D4CAD2CED0D2CED6CC82E6B4
:102C800086E48AE28EE012FE16FC1AFA1EF82AF694
:102C90002EF432F236F03AEE3EEC42EA46E872E6C4
:102CA00076E47AE27EE003C77700930600021377AA
:102CB0000703630AD74E130600036302C704631EAB
:102CC000072203C7770085461377F703630BD75CAA
:102CD0006304075C89466312D72203C77700137722
:102CE0000704630C072003C7B70313474700A38DEE
:102CF000E70203D587001375F50F253FFDAA194795
:102D00002389E7021147A389E70203A901848347C6
:102D1000790003476900A207D98F138761832310C5
:102D2000F70003471900938741832380E700034A94
:102D300009001384618313770A06630C070E03C727
:102D400007001377070219CF83C707001307100284
:102D500093F7F70F638AE700130720026384E70005
:102D60006396D718814499A09387818023AEF1821E
:102D7000835704001D479389C183A1446366F7000C
:102D80008354040093F4F40F2686938581804A854A
:102D9000EF10A01583570400858FC207C18323104D
:102DA000F40083A70900A69723A0F9008357040025
:102DB000C204C18063F4F4002310940093878183DC
:102DC00003D707009D46A14463E6E60083D40700CD
:102DD00093F4F40F1389C183832909002686CE85D5
:102DE0001385C182CE94EF10401023209900620A0F
:102DF000135A8A41814763520A0203570400A147CC
:102E000063E6E7008357040093F7F70F03570400C6
:102E10001D8F420741832310E400C207370700508B
:102E2000C1832318F70291472309F702A309F70288
:102E3000E9A083C707002D4793F7F70F6368F70AE8
:102E400031678A07130747FBBA979C4382878347FA
:102E5000390003472900A207D98F13D787008D4671
:102E60009384C1836305D70E63ECE6008547630A4C
:102E7000F70289476305F70C9309F00F814705A80E
:102E80009D476303F712930720026308F7109947E1
:102E9000E314F7FEB167938747089CC08149A947AF
:102EA00039A0B167938787029CC08149C9470357FE
:102EB0000400C207C18363F4E7002310F4008357C2
:102EC00004001D47A14A6366F700835A040093FA81
:102ED000FA0F8C4056864A85EF1020019C40BE9A1E
:102EE00023A054019307F00FE393F9F0B7070050C4
:102EF0001D472389E702A389E702B7070050094766
:102F00002383E7003654A65416598659764AE64A72
:102F10003660A660166186617272E2725273C27385
:102F20003275A275127682767267E2675268C2685D
:102F3000326EA26E126F826F656173002030B167CE
:102F4000938747FE9CC08149930730048DB793F760
:102F5000F70F85466385D70289CF89466388D702F4
:102F6000E39CE7F0B1679387C7069CC08149D947C6
:102F70003DBF938741819CC0814991470DBFB16797
:102F80009387C7039CC08149B94715B7B167938739
:102F9000C7049CC08149B14719BFB16793878705B2
:102FA0009CC08149D14721B783C7F18093F7F70FC0
:102FB000E39407ECB709002093890901B165130672
:102FC0001004938565FE13852900EF00107223A07D
:102FD000340195BF834729002310F40009BD83C73E
:102FE00081822300F900035704008547E3E6E7FEEA
:102FF000FDBB034729002384E182D5BB1377FA0187
:103000008947E315F7EE834749006383E704636E5E
:10301000F7000547E39CE7EC370700508347770349
:1030200093F7870FA30BF702D9B313071008638A2E
:10303000E70213072008E39BE7EA370700508347BE
:10304000A70393F7870F93E72700230DF70245B3F4
:10305000370700508347B70393F7870FA30DF70295
:1030600079B3370700508347670393F7870F93E7D8
:103070002700230BF702A5BB1387C18283470700F4
:10308000FD8B89EB835727000547E391E7E6238D06
:10309000F182B1BB8946E39BD7E483562700E397CF
:1030A00006E4034747006305F70463E0E70285474A
:1030B000E31EF7E2370700508347770393F7C70F04
:1030C000A30BF70293E73700B1BF93071008630C17
:1030D000F70293072008E31BF7E037070050834708
:1030E000A70393F7C70F230DF70293E73700B1BF8C
:1030F000370700508347B70393F7C70FA30DF702B5
:1031000093E73700A1BF370700508347670393F762
:10311000C70F230BF70293E73700A1BF2300090075
:10312000D9B5238601829387818383D6070005471B
:10313000E37FD7CA2390E7005DB91387C1822310CC
:10314000070003574700930610089387C182631353
:10315000D70237070050034767030D8B8D46631571
:10316000D70005472380E7009387818383D6070034
:1031700009477DBF85466317D700370700500347CF
:103180007703E1BF930620086317D7003707005085
:103190000347A703D9B78946E318D7FC3707005080
:1031A0000347B7035DBF83C677001306100293F68B
:1031B000F6036387C60A130620026380C60CE39EEB
:1031C000E6D203C7418395461377F70F6306D70608
:1031D00099466314D7089387618383D707001D47F7
:1031E0009384618321446366F70003D4040013745D
:1031F000F40F1389C18303A5018483250900228666
:10320000EF00B04E83D70400131704014183998F58
:10321000C207C1832390F400832709003E94232032
:103220008900B70700502398E70203C72703134715
:1032300047002389E702D1B103C7370083D66183F2
:1032400013770708558F1377F70FA381E700094716
:103250002389E702A38907024DB123980702C5BF5E
:1032600003C767031377C70F238BE70203C76703FF
:1032700013474700238BE70249B103C7A70313474E
:103280004700238DE70203C7A7031377C70F136710
:103290002700238DE70295B103C7418383D78700B9
:1032A000A9B903C7770013770704E30807C403C766
:1032B000770313474700A38BE70203D587001375F5
:1032C000F50FEFF07F9415B99376170085CAA381A7
:1032D0000700A3890702A38B0702A38D07020947F2
:1032E0002389E702238BE702238DE70203C76700E8
:1032F000136717002383E70073002030937647009D
:10330000F5DA03C757001147F5B783D7C184AA97E9
:10331000C207C183139607014186634B0600856689
:103320001387F6FF6359D6006315E500AA8711A03D
:1033300081473E858280BA87EDBFEFC27FEF0111E2
:103340001306000281450A85EFC09FF185451305EC
:103350000020EFF06F99854513050040EFF0CF98FE
:10336000216537240140EFE05FFD13050440EFE0E5
:10337000CFF13735014013050580EFE00FF1C1674C
:1033800037070E003EC08A858547130504403EC2BC
:103390003AC6230AF10002C402C802CC02CEEFE012
:1033A0002FF3814605468D4513050440EFE00FFFDE
:1033B000894513050440EFE0BF93814605468145EA
:1033C00013050440EFE03F8B814609468545130510
:1033D0000440EFE05F8A996513050440EFE09F87A2
:1033E000854513050440EFE0DF8705469305004857
:1033F00013050440EFE06FF5854513050440EFE049
:10340000AFF3854513050440EFE00FF28145130546
:103410000440EFE05F9313050440EFE06FF4930482
:1034200004402685EFE06FF46DFD1305044037245A
:103430000140EFE00FF4930404402685EFE00FF421
:103440006DFD13050440EFE09F912396A18485450F
:1034500013050440EFE03F8F373401408A851305A0
:103460000480EFE0EFE681460546914513050480B0
:10347000EFE0CFF2854513050480EFE07F878146BA
:103480000546894513050480EFE0EFFE85451305E9
:103490000480EFE00FFD854513050480EFE0CFE8E1
:1034A000814513050480EFE01F8A13050480EFE0D7
:1034B0002FEB930404802685EFE02FEB6DFD1305C1
:1034C000048037340140EFE0CFEA9304048026857E
:1034D000EFE0CFEA6DFD13050480EFE05F882397EE
:1034E000A184854513050480EFE0FF853725014061
:1034F000854513050540EFE0EFE885451305048099
:10350000EFE04FE805616FC0FFD4EFC27FD23725EF
:103510000140D14513050540EFE0CFFE420541854E
:10352000ED336FC03FD3EFC2BFD037250140E14537
:1035300013050540EFE00FFD42054185EFF0FFDC8C
:103540006FC05FD1EFC2DFCE37350140D1451305E3
:103550000580EFE02FFB83D7E184AA97C207C183E0
:10356000139607014186634C060085661387F6FFB4
:103570006359D6006303E5003E856FC0BFCD0145AA
:10358000EDBF3A85DDBFEFC2BFCA03950185EFF0FD
:10359000DFD76FC03FCC83D7218503D5E1843E952B
:1035A00042054181131605014186634B060085667D
:1035B0001387F6FF6358D6006393E7003E85828049
:1035C000014582803A858280B707002083A70722C1
:1035D00037177A0013070720B3D7E70293F7F70FDF
:1035E000238BF1841307803EB387E702239AF1848B
:1035F0008280B7F700E0D8438146799BD8C303C7E0
:1036000061853306A70290CBD4CB9843136707019B
:1036100098C398431367170298C3D843058B75DF87
:103620009843799B98C38280B7F700E0D8438146DE
:10363000799BD8C303D741853306A70290CBD4CB5F
:1036400098431367070198C398431367170298C3F9
:10365000D843058B75DF9843799B98C38280EFC26E
:103660003FBD79711306C00281454800EFC05FBFBE
:1036700085450545EFE07FE53704024013058400EA
:10368000EFE07F84B72701409387C7443EC293870A
:1036900081853EC485473EC8930700083ECC93070A
:1036A00000203ECE8567938707803ED04C008D6713
:1036B000130584003ED402C602CA02D202D6EFE04D
:1036C0005F970546B94513058400EFE01F9A4561F1
:1036D0006FC05FB8EFC2DFB541118545714502C2C9
:1036E00002C402C6EFE05FE085450545EFE0DFDF9D
:1036F00037140140FD474C00130504802312F100EC
:10370000B704200002C6EFE09F9E13852400854584
:10371000EFE09FAA138584008545EFE0FFA98D4463
:103720009307003C61494C00371501402312F1001A
:103730004AC626C4EFE0BF9B930700084C00130560
:1037400004802312F100EFE09F9A4C00130504C09F
:1037500023129100EFE0BF99930700404C0013053E
:1037600004C02312F10026C44AC6EFE05F988567C3
:10377000938707802312F1004C009147130504C082
:103780003EC6EFE0DF96930780032312F1004C0062
:10379000C147371501403EC626C4EFE05F954101A1
:1037A0006FC05FABEFC2DFA841118545214502C262
:1037B00002C402C6EFE05FD33714014085678D4431
:1037C0002312F1004C00C147130504C03EC626C4B5
:1037D000EFE0FF91130504C08565EFE07F9D8967E9
:1037E00061494C00130504C02312F1004AC626C4E7
:1037F000EFE0FF8F91672312F1004C009147130512
:1038000004C03EC6EFE0BF8EE1774C00130504C054
:103810002312F1004AC626C4EFE07F8D41016FC03C
:103820007FA3372501405D719305004813050540CE
:1038300082E686E48AE28EE012FE16FC1AFA1EF890
:103840002AF62EF432F236F03AEE3EEC42EA46E840
:1038500072E676E47AE27EE0EFE08FCC854763168D
:10386000F500138541A8EFE04F99372501409305F6
:10387000004813050540EFE06FCC3660A660166186
:1038800086617272E2725273C2733275A2751276D9
:1038900082767267E2675268C268326EA26E126FF9
:1038A000826F6161730020305D71094582E686E4B4
:1038B0008AE28EE012FE16FC1AFA1EF82AF62EF4A0
:1038C00032F236F03AEE3EEC42EA46E872E676E450
:1038D0007AE27EE0EFE07F808547631BF500EFE052
:1038E0007F8083A781852398F184C1832399F18404
:1038F0003660A660166186617272E2725273C2739C
:103900003275A275127682767267E2675268C26873
:10391000326EA26E126F826F6161730020301D7172
:10392000A2CE37540040930550521305048082E61E
:1039300086E48AE28EE012FE16FC1AFA1EF82AF6D7
:103940002EF432F236F03AEE3EEC42EA46E872E607
:1039500076E47AE27EE0EFF02FA409CD130504802F
:10396000EFF02FA29375F50F370500201305452EB4
:10397000EFD00F8676443660A6601661866172725B
:10398000E2725273C2733275A275127682767267D2
:10399000E2675268C268326EA26E126F826F256152
:1039A00073002030EFC2DF884111114502C402C606
:1039B000EFE0DF8C0544ED4728002314F10022C618
:1039C00023050100EFE0FF8B93072012280023144A
:1039D000F10022C623050100EFE0BF8A93077023A0
:1039E00028002314F10022C623050100EFE07F899F
:1039F00041016FC03F86EFC2BF830111854511654C
:103A000002C602C802CA02CC231E0100EFE0BFAF0B
:103A1000B70704013EC68567938707803EC8B7078E
:103A200000023744004085073ECA6C00C1471305B9
:103A300004803ECCEFE0FFB0854513050480EFE045
:103A4000FFB505616FC01F81EFC28FFE2A84AE846F
:103A500089452285EFE03FB765DDA6852285EFE049
:103A6000DFB56FC02FFFEFC2AFFC2A8485452285EA
:103A7000EFE07FB565DD2285EFE09FB46FC08FFD7D
:103A8000EFC20FFB37140140AA842E89130504C02E
:103A90008565EFE02FF2CA8526857D372685E137DB
:103AA000AA848565130504C0EFE08FF00545EFF0AB
:103AB0005FB426856FC00FFA935785003D8D9357ED
:103AC0004500A98F13D527003D8D935715003D8DD7
:103AD00005898280EFC2CFF5AA84C16537450040D1
:103AE000FD1513050580693F2A84F93709E9131587
:103AF000240149812390A40005456FC0AFF501451D
:103B0000EDBFEFC24FF1797185450965B709002016
:103B100002D002D202D402D602C202C4231601008D
:103B200002C802CA02CC231E0100EFE0FF9B03A7DC
:103B300009229567138907E233572703A1673734B2
:103B400001409384F7FF4C00B70740001305044081
:103B50003EC2231501000583658F2314E100EFE0C9
:103B60005FA7C167938707063ED091473ED20C10EE
:103B700093070010130504403ED602D4EFE07FB156
:103B80000C1013050440EFE0DFBA0C1013050440DD
:103B9000EFE0FFC6930700072310F10283A7092275
:103BA0000C1013050440B3D72703231201028583A9
:103BB000E58FED172313F102EFE01FD183A7092250
:103BC00037470F0013070724B3D7E7020C08130584
:103BD000044002C8231A0100D3F707D0B7B700008A
:103BE00007A707E15377F718D30700F0D3F7E718D3
:103BF000D39707C0231BF100B70700203ECC916785
:103C0000231EF100EFE03FD6130504408545EFE0A9
:103C10003FDA13050440A145EFE0DFDC1305044063
:103C2000A145EFE05FDD13050440A145EFE05FDE55
:103C300013050440A145EFE0DFDE13050440854590
:103C4000EFE07FD8854513050440EFE0BFD4456120
:103C50006FC0AFDFEFC2CFDDB707002083A507221B
:103C60009567938707E2B3D5F50237350140130511
:103C70000540C205C581D3F715D053F5A710D3155C
:103C800015C0C205C181EFE07FDB6FC0AFDCEFC2C2
:103C90002FDAB707002083A507229567938707E2ED
:103CA000B3D5F5023735014013050540C205C5817E
:103CB000D3F715D053F5A710D31515C0C205C18190
:103CC000EFE03FD86FC00FD9EFC28FD6B707002003
:103CD00083A507229567938707E2B3D5F5023735A9
:103CE000014013050540C205C581D3F715D053F532
:103CF000A710D31515C0C205C181EFE0FFD46FC076
:103D00006FD5EFC2EFD2411185453705040002C0DF
:103D100002C202C402C6EFE00FFFF1673754004051
:103D2000938707203EC08A85B7070C0013050480DF
:103D30003EC402C223160100EFE07FD10546130501
:103D4000048093055052EFE0DFDF854513050480C2
:103D5000EFE07FDD41016FC0EFCFEFC26FCD375491
:103D60000040AA84130404808385040099E16FC095
:103D70006FCEC205C1812285EFE01FE093050008E8
:103D80002285EFE0BFE07DD98504F9BF411106C669
:103D900022C426C2D30705E07327200013D577017C
:103DA0001375F50F13071500139497001377E70F9A
:103DB000258093D4F7011DC39357340013050538AC
:103DC0007604B2075205B183C98FFE04C58F2285E0
:103DD000BE85B24022449244410182800DE935C43F
:103DE00022854928A94763C1A7082D47098F930752
:103DF00055013357E4003314F4009317C700130739
:103E000090383305A740B1831375F57F5DBF15C8A2
:103E10003707080093573400D98F370710007D17F4
:103E2000131694009316D401F98F635306027D8F05
:103E30009397F401B704F07FD98CC58F3685BE8582
:103E400049BF1305F07F8147ADBF0145814795BF4D
:103E50007D8F9397F401B704F07F458FD98F368516
:103E6000BE8573601800B5B7130755FF3317E4001C
:103E7000014461B7C167637EF5029307F00F130732
:103E8000000263ECA700978700009387A720AA97FA
:103E900003C507003305A740828021819787000072
:103EA0009387471FAA9703C5070061473305A740BB
:103EB0008280B7070001636EF5006181978700007B
:103EC0009387471DAA9703C5070021473305A740DD
:103ED00082804181978700009387C71BAA9703C5FB
:103EE000070041473305A7408280B3C7A5008D8BEB
:103EF0003307C50081E78D4763EEC700AA8763706B
:103F0000E50A83C6050085078505A38FD7FEE3EA8A
:103F1000E7FE828093763500AA8791CA83C60500A2
:103F200085078505A38FD7FE93F63700FDB79376F7
:103F3000C7FF138606FE63F0C70683A3050083A2AE
:103F4000450083AF850003AFC50083AE050103AE16
:103F5000450103A3850183A8C5019385450223A0DC
:103F6000770003A8C5FF23A2570023A4F70123A6C7
:103F7000E70123A8D70123AAC70123AC670023AE1A
:103F800017019387470223AE07FF75B7904191074A
:103F9000910523AEC7FEE3EBD7FEE3E4E7F68280AC
:103FA000797122D44AD052CC56CA5AC806D626D2E3
:103FB0004ECE3A8AAE8A32843689428B01476358A4
:103FC0000600370700803344C7001307D002238060
:103FD000E70093F4F8FD930760048D466388F400CE
:103FE0009307500489466393F4000509DA87930820
:103FF000C100130881004A87D6852286EF10B026BB
:1040000093077004AA896396F400137A1A00630A6E
:104010000A0493076004338A29016397F40203C7F3
:10402000090093070003631EF70001468146568589
:10403000A285EF40907B11C5854733892741232016
:104040002B0183270B003E9A014681465685A285A7
:10405000EF40B07911E152C613070003B24763E2A3
:104060004703B2474257B2502254B38737411CC36B
:104070004E8592540259F249624AD24A424B4561F6
:1040800082809386170036C62380E700C1BF2300D5
:10409000C500130725009307B00263D60500B305DA
:1040A000B0409307D002A300F500A54763DAB70438
:1040B00041119307F100BE88294813033006B3E687
:1040C00005031386F7FF93860603A38FD7FEB3C6B7
:1040D0000503634DB30093860603F917A30FD6FEBD
:1040E00063E917013305A74041018280B287B68595
:1040F000F9B7850783C6F7FF0507A30FD7FECDB72E
:104100009307000313074500938505032301F5007A
:10411000A301B5003305A740828019713ACE86DE2F
:10412000A2DCA6DA2E84CAD8CED6D2D4B689DAD00A
:10413000DECEE2CC3289D6D2E6CAEAC8EEC6AA847E
:10414000EF205047832B05005E85EF00D004032B42
:104150000400724702DC93760B102A8C034A840118
:104160001C43F1CA9386470014C39C43081098432C
:104170003AD0D8433AD298473AD4DC473ED6EF609B
:10418000C07328C46CC4832CC404178700001307B1
:104190006700832A8404032D0700832D470093972B
:1041A0001C0085836A86EE865685BE853ECEEF600E
:1041B000201241EDF2476A86EE865685BE85EF40B5
:1041C000B0776354A008014681465685E685EF40E6
:1041D000B076635605009307D002A301F404930759
:1041E0007004978A0000938A6AFB63F64701978AF6
:1041F0000000938AEAFA137BBBFF8D4723206401FA
:104200001CC8014B4E87CA867018A2852685C12E10
:10421000FD5C631E95157D55F6506654D65446597F
:10422000B659265A965A065BF64B664CD64C464D06
:10423000B64D096182809D07E19B9386870014C378
:104240009843DC4338C47CC43DBF5686E686568519
:10425000E685EF60E00711CD93077004978A0000B0
:10426000938A4AF4E3F947F9978A0000938ACAF3DC
:1042700059B75C407D57137DFA0D6395E708994760
:104280005CC0544013670B403C18D6853EC018C034
:104290009307310302C2D28813084103668626853C
:1042A000EFF01FD093077004AA8AD255631BFD005C
:1042B000F55763C5F5005C4063D8B708791A137ADF
:1042C000FA0F9307500663E64705FD15528613055E
:1042D00004052EDAEFF0BFDB625785462A8BB30761
:1042E000A7001CC863C5E6001840058B19C38507E5
:1042F0001CC883473103E38707F09307D002A3016B
:10430000F40409B713077004E31DEDF6BDFB854700
:1043100085BF93076006631BFA025C40635BB000D5
:104320000CC881E71840058B09CF8507AE971CC8DC
:1043300009A889E718408546058B19C3938627008D
:1043400014C82CCC014B75B7130A7006E25763C929
:10435000F5001C400CC8858BEDD793871500C1BFB5
:1043600005476344B00009470D8FBA97C9B71C4091
:1043700013F7074015E314485686CA8526858299A7
:10438000E30B95E91C40898B63960724F257484458
:10439000E354F5E83E8549B513075006637B47199A
:1043A00028446C4401468146EF40304439E9854653
:1043B00017860000130686DFCA8526858299E30CDE
:1043C00095E55257E2576345F7001C40858BDDDBCE
:1043D000E2865E86CA8526858299FD57E30DF5E261
:1043E000014A930AA4017D5BE257FD17E35CFAF8EA
:1043F00085465686CA8526858299E30E65E1050ABB
:10440000E5B7D2576346F0068546178600001306C7
:10441000E6D9CA8526858299E30F95DFD257625780
:10442000D98F81E71C40858BB1DFE2865E86CA8525
:1044300026858299FD57E300F5DE014A130BA4019E
:10444000FD5BD257B307F040634BFA00E256568645
:10445000CA8526858299FD57E316F5F26DBB854620
:104460005A86CA8526858299E30775DB050AD1BF7E
:104470003C4C625A63D347013E8A635A4001D2865C
:104480005686CA8526858299FD57E306F5D8814C64
:10449000130DA401FD5D09A885466A86CA85268597
:1044A0008299E30AB5D7850C032B8405D287635321
:1044B0000A008147B307FB40E3C0FCFE5257E257B6
:1044C000634DF7021C40858B8DEBE2575257338AC0
:1044D000E7406344EB00338A6741635B4001D28667
:1044E00033866A01CA8526858299FD57E305F5D290
:1044F000814A130BA401FD5B15A0E2865E86CA8586
:1045000026858299FD57E312F5FC31B385465A861C
:10451000CA8526858299E30075D1850A5257E257EC
:10452000998F528763530A000147998FE3C0FAFEBF
:1045300091BDE25605476344D700858BB5C78546D4
:104540005686CA85268582997D5AE30645CDE28640
:104550005E86CA8526858299E30F45CB28446C4444
:1045600001468146EF4070281DC9E25613861A00A5
:10457000CA85FD1626858299E30F45C9DA8613069A
:104580000405F9B585465686CA8526858299E304D1
:1045900075C9050AE257FD17E346FAFEC5B7014A99
:1045A000930AA401FD5BFDB785465686CA8526851C
:1045B0008299E31595FD85B185465686CA8526857F
:1045C0008299E30A65C5050A5C447257998FE345F1
:1045D000FAFE6DBB014A930A94017D5BF5B77971D0
:1045E00056CA9C49BA8A984522D426D24ECE52CC7D
:1045F00006D64AD05AC85EC6AA892E84B284368AA4
:1046000063D3E700BA879CC00347340419C3850706
:104610009CC01C4093F7070281C79C4089079CC03F
:104620000329040013796900631A0900130B94012C
:10463000FD5B5C449840998F634CF9041C408346B1
:10464000340493F70702B336D000A5EB1306340405
:10465000D2854E85829AFD576303F5041C401146AE
:104660009840998B544481446397C700B384E640D3
:1046700063D3040081441C4418486354F700998FA5
:10468000BE94014969047D5B63982405014509A82E
:1046900085465A86D2854E85829A631E75017D5560
:1046A000B250225492540259F249624AD24A424BC1
:1046B000B24B456182800509ADBF3307D4001306B4
:1046C0000003A301C7040347540493871600A2976D
:1046D0008906A381E7049DBF85462286D2854E8543
:1046E000829AE30E65FB050945B7797122D426D27B
:1046F0004AD04ECE06D652CC56CA5AC8B68983C6C0
:104700008501930790063289AA842E841386350486
:10471000638DF60263E2D706930780056389F61876
:1047200063EDD7006382062293073004638FF60A95
:10473000930A24042301D404D1A09307300663868E
:10474000F60A93074006E395F6FE1C40084393F6ED
:10475000070893054500CDC61C410CC363D807006C
:104760001307D002B307F040A301E40497860000CA
:10477000938606A4294775A8930700076385F61654
:1047800063E5D7029307E006638CF6189307F006FB
:10479000E390F6FA0C401C4313F805081385470014
:1047A0006308080608C39C4395A893075007E38352
:1047B000F6FE93078007638CF61293073007E399A0
:1047C000F6F61C43D04181459386470014C383AA63
:1047D00007005685EF20E06301C53305554148C009
:1047E0005C401CC8A301040471A81C43930A240460
:1047F000938647009C4314C32301F4048547D5B72F
:1048000093F607041C410CC3B1DAC207C187B9B7DC
:1048100093F5050408C3C1D983D707001307F00631
:104820006388E60E97860000938686982947A30141
:1048300004044C400CC463C5050008406D9908C0D1
:1048400099E3B28A91CDB28AB3F5E702FD1AB69523
:1048500083C505002380BA00B3D5E70263F0E70CF7
:10486000A147631EF7001C40858B91CB58401C4824
:1048700063C7E70093070003A38FFAFEFD1A330610
:10488000564110C84E87CA867000A2852685EFF073
:104890001FD57D5A631E450B7D55B250225492544C
:1048A0000259F249624AD24A424B45618280A38250
:1048B000D504978600009386A68F0C40084313F812
:1048C00005081C411105630D080208C313F7150004
:1048D00001C793E505020CC04147B1FB0C4093F5BD
:1048E000F5FD0CC0A9B79C4193E707029CC1930753
:1048F0008007A302F404978600009386A68C75BFF8
:1049000013F8050408C3E30308FCC207C1837DBF95
:10491000978600009386C689214711BFAE872DB7C1
:1049200094411C43CC4913F80608138547006306DD
:10493000080008C39C438CC301A808C393F606046F
:104940009C43F5DA2390B70023280400B28A1DBFE8
:1049500014485686CA8526858299E30F45F31C4084
:10496000898B8DE7B2474844E359F5F23E8535B768
:1049700085465686CA8526858299E30F65F1050A24
:104980005C443247998FE345FAFEE9BF014A930A36
:1049900094017D5BF5B7AA87850703C7F7FF6DFF15
:1049A0003385A7407D158280011122CC2A872E8471
:1049B0003A85A28532C606CEEF20303432462A88A8
:1049C000AE8805C651801374F47F9307B006818FBB
:1049D000635DF000D2073707F03F01483E974286FB
:1049E000BA86EF40D0002A88AE88F2406244428501
:1049F000C6850561828035714AC92A89368532D2D9
:104A000036C006CF22CD26CB4EC7E6DAEAD852C54D
:104A10002E8D56C35AC1DEDEE2DCEED682C8EF2010
:104A20000039AA8C084181440144EFF0DFF6824648
:104A3000AA89EAC635461305B0021308D0029308C6
:104A400000022543B64703C70700636BE608637F90
:104A500067085DC7814D364A93070003814A0347C3
:104A60000A00631CF71283471A0013078005638846
:104A7000E70013068007130700036396C710368804
:104A8000EE879808D408177600001306A67AEC0083
:104A90004A85EF10F04893797500AA8A6388090067
:104AA00099476397F906050AD2C6814D925781C787
:104AB000B64712571CC363890D04B7050080A18D4A
:104AC000FA406A4426854A49DA44BA492A4A9A4A47
:104AD0000A4BF65B665CD65C465DB65D0D61828016
:104AE0006309A70063040703E31617F78507BEC62B
:104AF00091BF814D13871700BAC683C71700A1FF66
:104B00009257EAC6814DCDF7A2855DBF854DDDB7D1
:104B1000464611CA93055003A808EF203042C64507
:104B20004A85EF206039FD19914763EE3701177709
:104B300000001307676A8A09BA9983A70900BA9720
:104B40008287E644764493FA8A00E3810AF6B7073F
:104B500000805D8CA1BFF6453704F0FF7D14B3F7EC
:104B600085005644E644130434439315440133E46A
:104B7000B700D1BF3704F07FF9B7B705008013C481
:104B8000F5FFFD54C9B7B64793861700B6C683C76D
:104B90001700E38AE7FE99DB854AB647014A814B55
:104BA0003EC0014CA5462148A9473645034B0500A8
:104BB00013070BFD1376F70F63FDC60483A50C00E6
:104BC0004E86EF30A0123DC1DA87E28C8146014B60
:104BD0000145130750066387E70013075004814916
:104BE000639CE71663960C00B3E7560191DB814C9A
:104BF000364D1307B00293071D00BEC683471D0044
:104C00006385E70E1307D00281486396E70E854857
:104C1000F1A863498801B38BFB02BA9B0505050C1B
:104C2000AAC661B7330AFA023A9ACDBF3645814621
:104C30004E95AAC68347050063000C08014BE28C21
:104C4000138707FD25466377E602054559B7B64742
:104C5000850613861700B2C683C71700E389E7FEEF
:104C60001387F7FC2146E369E6203647368B814CF3
:104C70003AC08146938707FD1387160095C73A9B74
:104C8000338596016687A148414329466319A702E7
:104C900013881C00B30CD800A14663CFE602294755
:104CA000B38BEB020147BE9BB64793861700B6C68F
:104CB00083C71700BA8669B71307000345B7930582
:104CC000170063C6E800B38BCB022E87C1B7E34E53
:104CD000B3FE330ACA02D5BFC1460147E3C696FDFB
:104CE000A946330ADA023E9AC1B7814893072D00DC
:104CF000BEC683472D00138707FD25466367E60C74
:104D0000130700036386E70A1387F7FC21468149EE
:104D10006364E6043643138707FD254EA94EB64764
:104D200013861700B2C683C71700938507FD93F556
:104D3000F50F6376BE089569330666409389F9E1FD
:104D40002143CE856346C300BA8963D3E500AE89AB
:104D500063840800B309304163980C0CB3E6DA00B1
:104D6000E39606D4E31E05D81307E004638AE7063A
:104D70006340F70613079004E394E7D897750000A3
:104D80009385454AE800EF103069E30B05D6B64736
:104D90009775000093854549E800FD17BEC6EF10E2
:104DA000B06701E5B6478507BEC63704F07FFDB999
:104DB000B64713861700B2C683C71700A1B73307DB
:104DC000D703BA97138707FD99BFEAC6814969B728
:104DD00013079006E384E7FA1307E006E392E7D2AD
:104DE000977500009385C544E800EF10F062E30971
:104DF00005D0B64703C70700930780026313F70285
:104E0000B0089775000093852544E800EF10D06343
:104E100095476318F500F6453704F07FE6444D8C5E
:104E200071B13704F8FF59B1B38A694163130C00BB
:104E3000668CC147668D63D39701414D5E85EF5007
:104E4000606FA547AA842E8463DC970393077DFFD8
:104E500013973700977700009387474BBA97904393
:104E6000D443EF40C0382A845285AE84EF50806C22
:104E70002A86AE862285A685EF20B077AA842E8466
:104E8000BD4763CD9709E3830AC26354500759476E
:104E9000634357038E0A9777000093872747BE9A8C
:104EA00003A50A0083A54A002686A286EF40203487
:104EB000AA842E84E5BE1307500233079741634F3F
:104EC0005705B38C974197790000938929449397AC
:104ED0003C00CE978843CC432686A286EF40203103
:104EE00033889A410E084E9803260800832648000E
:104EF00075BFA95763C4FA02B3093B41139B39003C
:104F00009779000093898940DA9903A6090083A65E
:104F100049002685A285EF30B00E59BF338DAC41D4
:104F2000569D6356A0119377FD0099CF1777000027
:104F30001307C73D8E07BA978843CC432686A286BF
:104F4000EF40E02AAA842E84137D0DFF63070D0A2B
:104F50009307401363D4A705014B8149814C814BD2
:104F6000930720022320F9003704F07F8144E38F68
:104F70000CB2C6454A85EF103074DE854A85EF10C5
:104F8000B073CE854A85EF103073E6854A85EF1001
:104F9000B072DA854A85EF10307209BE135D4D405C
:104FA0002685A2858147014A8548177300001303AF
:104FB000633363C6A80599C3AA842E8417770000BB
:104FC0001307473293173A00BA978843CC43370701
:104FD000B0FC22972686BA86EF4060213704F07F26
:104FE000B377B4003707A07CAA84E367F7F63707E6
:104FF000907C637AF7027D14FD54014ADDA8137793
:105000001D0011CF13173A001A9710435443EF4075
:10501000001E85478548177300001303A32C050A5B
:10502000135D1D4079B7370450032E94F9B7E3069A
:105030000DFC330DA0419377FD0099CF1777000049
:105040001307C72C8E07BA979043D4432685A285B1
:10505000EF30007BAA842E84135D4D40E30F0DF8E2
:10506000FD4763DDA701014B8149814C814B9307CB
:105070002002814401442320F900D5BD137A0D019B
:1050800063040A00130AA0062685A285977700000C
:105090009387471D014793761D0081CA9043D443EF
:1050A0003EC6EF40C014B2470547135D1D40A1073F
:1050B000E3130DFE19C3AA842E8463050A029357D5
:1050C000440113F7F77F9307B006998F635CF000F4
:1050D0007D476354F7221307400381446359F72047
:1050E00037047003014681462685A285EF30F06FB4
:1050F0003DD98245E6865E8762864A85EF109069D3
:10510000AA8CE30B05E493D7FA41B3093B41B3F70B
:10511000F9003ECE56CC63D30A0002CC9387CC0074
:105120003ED6B7071000FD17014B81493ED483A539
:105130004C004A85EF10904FAA8BE30305E203A6CB
:105140000C01B255310509060A06EFE01FDAB8086E
:10515000D4082286A6854A8526C022C6EF2080492B
:10516000AAC8E30F05DE85454A85EF101078AA89A5
:10517000E30805DED64763C707187247624C338DD4
:10518000E7006647B387474193066003BA97998E55
:10519000FD17130720C063D7E7181D8F7D46998E32
:1051A0006347E6168547B397E7003ED002C8369CB2
:1051B0003307DD00529CEA876353A701BA87635324
:1051C000FC00E2876357F0001D8F330CFC40330D69
:1051D000FD40F247635AF002CE853E864A853ADAB0
:1051E000EF20A006AA89E30D05D64646AA854A8582
:1051F000EF1070712AD8E30505D6C6454A85EF1031
:10520000B04BC2575257BEC86340E012635A5001B8
:105210006246DE854A85EF204003AA8BE30205D46F
:10522000635A8001DE8562864A85EF20E00DAA8BF5
:10523000E30805D2635AA001CE856A864A85EF202D
:10524000A00CAA89E30E05D0C6455E864A85EF20EC
:10525000A01B2A8BE30605D0032CC500CE85232690
:105260000500EF204017635A050C336C9C00631255
:105270000C129317C400639E0710B707F07FE18FED
:105280003707B0066377F71083274B0191E70327B1
:105290000B01854763DFE70EDA8505464A85EF2077
:1052A000A006CE852A8BEF2000136354A00E630B5B
:1052B0000A10B707F07FE18F3707B0066344F71095
:1052C00037077003E355F7DA0147B70750392685EA
:1052D000A2853A86BE86EF3090712E84C98DAA844D
:1052E000E39905C8930720022320F90059B18117DB
:1052F0007D57B317F7007D8CF5B37D57B317F700D3
:10530000FD8CCDB36247724D330CF7409DBD130742
:1053100020BEB307F7400547B317F7003EC88547DF
:105320003ED071B502C8E5BFC6453A864A85EF1042
:10533000B07DAAC8E31C05EC25B161E53707100074
:105340007D17B377E40063090C046399E7047D5784
:1053500063000A02B707F07FE18FB706A00663E992
:10536000F600D1839306B006B387F6403317F700F3
:105370006396E402B707F07FFD176315F400FD574D
:10538000E380F4BEB705F07FE18D370410002E9462
:105390008144E31B0AF2F1BEC58F91DBC2479DCF6A
:1053A000E18FE5DB52862685A285630C0C02EFF0C7
:1053B000AFDF2A86AE860245B245EF209023AA844D
:1053C0002E84C1BFB705F07FE18D3704F0FFA295B1
:1053D000370410007D144D8CFD5465BF8257E58F56
:1053E000C9B7EFF06FDC2A86AE860245B245EF40C2
:1053F000604501468146AA842E84EF30103F51F962
:10540000BDB1CE855A85EF20202C97770000938779
:10541000E7DE9043D4432AC82ECAEF30F05142470A
:10542000D247634AA01063050C0A0147B707F03F53
:1054300081483708F03FB706F07F337DD400B706C8
:10544000E07F6319DD183ED8B707B0FCA297BE8590
:10545000268542DE46DC3ADA3EC826D0EF20E00957
:10546000525E42532A86AE8672859A85EF30305856
:105470000257C2473A86BE86EF20B017B706F07FC4
:1054800033F7B600B707A07CAA84E2587258636865
:10549000F70C32479387F6FF6396E7000247FD5704
:1054A000E380E7ACB707F07F1384F7FFFD54C645F0
:1054B0004A85EF107020DE854A85EF10F01FCE85FB
:1054C0004A85EF10701FDA854A85EF10F01E85B10E
:1054D000B1E4A256E18EA1EA97760000938686D1C8
:1054E0009042D4423A85BE853AC83ECAEF30D04495
:1054F000634F050297760000938646CF4247D24716
:105500009042D4423A85BE85EF30704EAA882E88EC
:10551000B70700804687B3C7070131BF854763944B
:10552000F400E30604B40147B707F0BF11B78148A0
:105530003708E03FF1BF97760000938626CB904274
:10554000D442BE853A85EF30904AAA882E88AE872D
:1055500063150C00B7070080AD8F2A87E9BD3704BB
:1055600050032E94E3150AF4B707F07FE18FE310A0
:10557000FDF44685C285428D46C0EF40305DEF4068
:10558000507482472A86AE863E85EA85EF40802B9E
:10559000A2572AC02EC2E18FC58F33EC8701630268
:1055A0000C0C97770000938767C69043D443EF3085
:1055B000B038E340059C977700009387A7C5024861
:1055C00092489043D4434285C685EF30902BE350F8
:1055D000A0EE45B263000A06B706A00663ECA60576
:1055E00097760000938606C29042D4424685C285D3
:1055F0003EDA3AD846D042C8EF301034424882589A
:105600004257D2576343A0024685C285EF4090615E
:1056100011E10545EF401072AA882E88AE87631508
:105620000C00B7070080AD8F2A87B705B006AE978C
:10563000B387A7410245B245BA843E8442D046C8EA
:10564000EF10B06B2A86AE862685A285EF30303A01
:105650000246B246EF20E079AA842E840258C2485E
:1056600011B797770000938767BB9043D443EF301F
:10567000B02CE35E05E2F5B8130750066387E70038
:10568000130750040545639BE7EC014B05456FF09C
:10569000AFD579714AD0138901818327090006D6D5
:1056A00022D4945326D252CE56CC2E8689E697B673
:1056B000FF1F938666A0AA853E85EFF0CFB3AA842C
:1056C0002E842A86AE862685A285EF40704019C9B1
:1056D0002254B25092540259724AE24A014545613D
:1056E0006F2020602685A285EF40506B5327A520B0
:1056F0009777000087A787B673271000D397E7A096
:1057000073101700B1C3977700009387A7A803AA67
:10571000070083AA4700060405805286D6862685A0
:10572000A2852AE6EF40D03A326511E95286D68644
:105730002685A285EF30502032656347A00083277D
:1057400009001307200298C3B25022549254025900
:10575000724AE24A4561828079714AD04ECE06D6BD
:1057600022D426D2AA892E899304190003C4F4FFF7
:105770003A8536C632C42EC23AC0EF10E062229596
:105780008347150002479245A18B2246B246C9E7DE
:105790009307D0026314F40883C7040005439304FD
:1057A0002900FDC641476392E60213070003639E8A
:1057B000E70083C704001307800593F7F70D639490
:1057C000E70C83C71400C1468904B708008063143E
:1057D000030093C8F8FF33FFD80201480145A54FE5
:1057E000E54EFD5233DED802138707FD63E4EF0474
:1057F000BA8763DFD704630D58007D58636AAE0033
:105800006314AE006346FF0005483385A6023E954B
:10581000850483C7F4FFC9BF2689B9B79307B002CF
:105820006305F400A2870143ADBF83C7040093045E
:105830002900D5BF1387F7FB63E5EE00938797FC3C
:105840004DBF1387F7F963E5EE00938797FA55B7D5
:10585000FD57631FF8009307200223A0F900468537
:1058600019EEB250225492540259F2494561828095
:10587000630403003305A0406DD6630408009385DC
:10588000F4FF0CC2F9BF93070003A1F2A14635BF94
:1058900013070003E38FE7F0A94605BF9387018153
:1058A0009C43B286985309E717B7FF1F1307C780B9
:1058B0002E86AA853E856FF03FEA1971A2DC86DE4E
:1058C000A6DA3284635B06009307B0081CC17D55DD
:1058D000F6506654D654096182803686930680203D
:1058E0002EC42ECC231AD100814519C09305F4FF94
:1058F000FD572EC82ECEBA862C00231BF100AA8499
:10590000EF20A013FD576355F5009307B0089CC026
:1059100061D0A2472380070065BF93870181368746
:10592000B2862E86AA8588436FF03FF9011122CCFA
:105930001C49804906CE26CA4AC84EC652C456C221
:1059400063C187127D141318240093894501338A9B
:105950000901130945014A9883270A000327080013
:105960008507B354F7026366F706C1684E834A8E13
:10597000814E014FFD1811030326C3FF110E33772B
:1059800016014182330797023306960276979356A3
:105990000701B3771701B307FF4036968326CEFF82
:1059A000935E06013376160133F71601BA97C1826A
:1059B00013D70741918EBA9613DF0641B3F717014B
:1059C000C206D58F232EFEFEE3776AFA83270800EE
:1059D000BDCBAA8AEF1030206349050441668504D7
:1059E000CA8501457D16910903A8C9FF9841910513
:1059F000B376C800158DB376C700AA9693570701F2
:105A00001358080113D70641B3870741BA9713D536
:105A10000741F18EC207D58F23AEF5FEE3753AFD3F
:105A200093172400CA9798431DC72685F240624405
:105A3000D2444249B249224A924A05618280832770
:105A4000080089E77D147118E36B09FF00C951B79D
:105A5000984309E77D14F117E36CF9FE23A88A0047
:105A6000E9B70145E1B73571BEC05C5122CD26CB07
:105A70004AC94EC752C5EAD806CF56C35AC1DEDE60
:105A8000E2DCE6DAEED63AD246D62EC8AA842E84D6
:105A9000B289368D428A328989EF4145EF10003351
:105AA000C8D0232205002324050023200500232637
:105AB0000500DC508C4389CDD84385472685B397B4
:105AC000E7009CC5D8C1EF10203FDC5023A00700A1
:105AD00063D709068547139919002320FA00135943
